{
  "contractName": "MemeToken",
  "abi": [
    {
      "constant": true,
      "inputs": [],
      "name": "promoCreatedCount",
      "outputs": [
        {
          "name": "",
          "type": "uint256"
        }
      ],
      "payable": false,
      "stateMutability": "view",
      "type": "function"
    },
    {
      "constant": true,
      "inputs": [],
      "name": "name",
      "outputs": [
        {
          "name": "",
          "type": "string"
        }
      ],
      "payable": false,
      "stateMutability": "pure",
      "type": "function"
    },
    {
      "constant": false,
      "inputs": [
        {
          "name": "_to",
          "type": "address"
        },
        {
          "name": "_tokenId",
          "type": "uint256"
        }
      ],
      "name": "approve",
      "outputs": [],
      "payable": false,
      "stateMutability": "nonpayable",
      "type": "function"
    },
    {
      "constant": true,
      "inputs": [],
      "name": "ceoAddress",
      "outputs": [
        {
          "name": "",
          "type": "address"
        }
      ],
      "payable": false,
      "stateMutability": "view",
      "type": "function"
    },
    {
      "constant": false,
      "inputs": [
        {
          "name": "_to",
          "type": "address"
        }
      ],
      "name": "payout",
      "outputs": [],
      "payable": false,
      "stateMutability": "nonpayable",
      "type": "function"
    },
    {
      "constant": true,
      "inputs": [],
      "name": "implementsERC721",
      "outputs": [
        {
          "name": "",
          "type": "bool"
        }
      ],
      "payable": false,
      "stateMutability": "pure",
      "type": "function"
    },
    {
      "constant": true,
      "inputs": [],
      "name": "totalSupply",
      "outputs": [
        {
          "name": "total",
          "type": "uint256"
        }
      ],
      "payable": false,
      "stateMutability": "view",
      "type": "function"
    },
    {
      "constant": false,
      "inputs": [
        {
          "name": "_from",
          "type": "address"
        },
        {
          "name": "_to",
          "type": "address"
        },
        {
          "name": "_tokenId",
          "type": "uint256"
        }
      ],
      "name": "transferFrom",
      "outputs": [],
      "payable": false,
      "stateMutability": "nonpayable",
      "type": "function"
    },
    {
      "constant": false,
      "inputs": [
        {
          "name": "_newCEO",
          "type": "address"
        }
      ],
      "name": "setCEO",
      "outputs": [],
      "payable": false,
      "stateMutability": "nonpayable",
      "type": "function"
    },
    {
      "constant": false,
      "inputs": [
        {
          "name": "_newCOO",
          "type": "address"
        }
      ],
      "name": "setCOO",
      "outputs": [],
      "payable": false,
      "stateMutability": "nonpayable",
      "type": "function"
    },
    {
      "constant": true,
      "inputs": [
        {
          "name": "_tokenId",
          "type": "uint256"
        }
      ],
      "name": "getMeme",
      "outputs": [
        {
          "name": "Id",
          "type": "uint256"
        },
        {
          "name": "memeName",
          "type": "string"
        },
        {
          "name": "sellingPrice",
          "type": "uint256"
        },
        {
          "name": "owner",
          "type": "address"
        }
      ],
      "payable": false,
      "stateMutability": "view",
      "type": "function"
    },
    {
      "constant": true,
      "inputs": [
        {
          "name": "_tokenIds",
          "type": "uint256[]"
        }
      ],
      "name": "getMemes",
      "outputs": [
        {
          "components": [
            {
              "name": "Id",
              "type": "uint256"
            },
            {
              "name": "memeName",
              "type": "string"
            },
            {
              "name": "sellingPrice",
              "type": "uint256"
            },
            {
              "name": "owner",
              "type": "address"
            }
          ],
          "name": "resultMemes",
          "type": "tuple[]"
        }
      ],
      "payable": false,
      "stateMutability": "view",
      "type": "function"
    },
    {
      "constant": true,
      "inputs": [
        {
          "name": "_tokenIdStart",
          "type": "uint256"
        },
        {
          "name": "_tokenIdEnd",
          "type": "uint256"
        }
      ],
      "name": "getMemeSellingPricesByRange",
      "outputs": [
        {
          "name": "sellingPrices",
          "type": "uint256[]"
        }
      ],
      "payable": false,
      "stateMutability": "view",
      "type": "function"
    },
    {
      "constant": true,
      "inputs": [
        {
          "name": "_tokenId",
          "type": "uint256"
        }
      ],
      "name": "ownerOf",
      "outputs": [
        {
          "name": "owner",
          "type": "address"
        }
      ],
      "payable": false,
      "stateMutability": "view",
      "type": "function"
    },
    {
      "constant": true,
      "inputs": [
        {
          "name": "_owner",
          "type": "address"
        }
      ],
      "name": "balanceOf",
      "outputs": [
        {
          "name": "balance",
          "type": "uint256"
        }
      ],
      "payable": false,
      "stateMutability": "view",
      "type": "function"
    },
    {
      "constant": true,
      "inputs": [
        {
          "name": "_owner",
          "type": "address"
        }
      ],
      "name": "tokensOfOwner",
      "outputs": [
        {
          "name": "ownerTokens",
          "type": "uint256[]"
        }
      ],
      "payable": false,
      "stateMutability": "view",
      "type": "function"
    },
    {
      "constant": true,
      "inputs": [],
      "name": "symbol",
      "outputs": [
        {
          "name": "",
          "type": "string"
        }
      ],
      "payable": false,
      "stateMutability": "pure",
      "type": "function"
    },
    {
      "constant": true,
      "inputs": [
        {
          "name": "_tokenIdStart",
          "type": "uint256"
        },
        {
          "name": "_tokenIdEnd",
          "type": "uint256"
        }
      ],
      "name": "getMemeOwnersByRange",
      "outputs": [
        {
          "name": "owners",
          "type": "address[]"
        }
      ],
      "payable": false,
      "stateMutability": "view",
      "type": "function"
    },
    {
      "constant": false,
      "inputs": [
        {
          "name": "_owner",
          "type": "address"
        },
        {
          "name": "_name",
          "type": "string"
        },
        {
          "name": "_price",
          "type": "uint256"
        }
      ],
      "name": "createPromoMeme",
      "outputs": [],
      "payable": false,
      "stateMutability": "nonpayable",
      "type": "function"
    },
    {
      "constant": true,
      "inputs": [],
      "name": "NAME",
      "outputs": [
        {
          "name": "",
          "type": "string"
        }
      ],
      "payable": false,
      "stateMutability": "view",
      "type": "function"
    },
    {
      "constant": true,
      "inputs": [
        {
          "name": "",
          "type": "uint256"
        }
      ],
      "name": "memeIndexToApproved",
      "outputs": [
        {
          "name": "",
          "type": "address"
        }
      ],
      "payable": false,
      "stateMutability": "view",
      "type": "function"
    },
    {
      "constant": false,
      "inputs": [
        {
          "name": "_to",
          "type": "address"
        },
        {
          "name": "_tokenId",
          "type": "uint256"
        }
      ],
      "name": "transfer",
      "outputs": [],
      "payable": false,
      "stateMutability": "nonpayable",
      "type": "function"
    },
    {
      "constant": true,
      "inputs": [
        {
          "name": "_tokenIds",
          "type": "uint256[]"
        }
      ],
      "name": "getMemeSellingPrices",
      "outputs": [
        {
          "name": "sellingPrices",
          "type": "uint256[]"
        }
      ],
      "payable": false,
      "stateMutability": "view",
      "type": "function"
    },
    {
      "constant": true,
      "inputs": [],
      "name": "cooAddress",
      "outputs": [
        {
          "name": "",
          "type": "address"
        }
      ],
      "payable": false,
      "stateMutability": "view",
      "type": "function"
    },
    {
      "constant": false,
      "inputs": [
        {
          "name": "_tokenId",
          "type": "uint256"
        }
      ],
      "name": "takeOwnership",
      "outputs": [],
      "payable": false,
      "stateMutability": "nonpayable",
      "type": "function"
    },
    {
      "constant": false,
      "inputs": [
        {
          "name": "_name",
          "type": "string"
        }
      ],
      "name": "createContractMeme",
      "outputs": [],
      "payable": false,
      "stateMutability": "nonpayable",
      "type": "function"
    },
    {
      "constant": true,
      "inputs": [
        {
          "name": "_tokenId",
          "type": "uint256"
        }
      ],
      "name": "priceOf",
      "outputs": [
        {
          "name": "price",
          "type": "uint256"
        }
      ],
      "payable": false,
      "stateMutability": "view",
      "type": "function"
    },
    {
      "constant": true,
      "inputs": [
        {
          "name": "",
          "type": "uint256"
        }
      ],
      "name": "memeIndexToOwner",
      "outputs": [
        {
          "name": "",
          "type": "address"
        }
      ],
      "payable": false,
      "stateMutability": "view",
      "type": "function"
    },
    {
      "constant": false,
      "inputs": [
        {
          "name": "_tokenId",
          "type": "uint256"
        }
      ],
      "name": "purchase",
      "outputs": [],
      "payable": true,
      "stateMutability": "payable",
      "type": "function"
    },
    {
      "constant": true,
      "inputs": [],
      "name": "SYMBOL",
      "outputs": [
        {
          "name": "",
          "type": "string"
        }
      ],
      "payable": false,
      "stateMutability": "view",
      "type": "function"
    },
    {
      "constant": true,
      "inputs": [
        {
          "name": "_tokenIds",
          "type": "uint256[]"
        }
      ],
      "name": "getMemeOwners",
      "outputs": [
        {
          "name": "owners",
          "type": "address[]"
        }
      ],
      "payable": false,
      "stateMutability": "view",
      "type": "function"
    },
    {
      "inputs": [],
      "payable": false,
      "stateMutability": "nonpayable",
      "type": "constructor"
    },
    {
      "anonymous": false,
      "inputs": [
        {
          "indexed": false,
          "name": "tokenId",
          "type": "uint256"
        },
        {
          "indexed": false,
          "name": "name",
          "type": "string"
        },
        {
          "indexed": false,
          "name": "owner",
          "type": "address"
        }
      ],
      "name": "Birth",
      "type": "event"
    },
    {
      "anonymous": false,
      "inputs": [
        {
          "indexed": false,
          "name": "tokenId",
          "type": "uint256"
        },
        {
          "indexed": false,
          "name": "oldPrice",
          "type": "uint256"
        },
        {
          "indexed": false,
          "name": "newPrice",
          "type": "uint256"
        },
        {
          "indexed": false,
          "name": "prevOwner",
          "type": "address"
        },
        {
          "indexed": false,
          "name": "winner",
          "type": "address"
        },
        {
          "indexed": false,
          "name": "name",
          "type": "string"
        }
      ],
      "name": "TokenSold",
      "type": "event"
    },
    {
      "anonymous": false,
      "inputs": [
        {
          "indexed": false,
          "name": "from",
          "type": "address"
        },
        {
          "indexed": false,
          "name": "to",
          "type": "address"
        },
        {
          "indexed": false,
          "name": "tokenId",
          "type": "uint256"
        }
      ],
      "name": "Transfer",
      "type": "event"
    },
    {
      "anonymous": false,
      "inputs": [
        {
          "indexed": true,
          "name": "owner",
          "type": "address"
        },
        {
          "indexed": true,
          "name": "approved",
          "type": "address"
        },
        {
          "indexed": false,
          "name": "tokenId",
          "type": "uint256"
        }
      ],
      "name": "Approval",
      "type": "event"
    }
  ],
  "bytecode": "0x606060405266038d7ea4c6800060005566be78bd4c57d0006001556707d72165f25ed000600255341561003157600080fd5b33600760006101000a81548173ffffffffffffffffffffffffffffffffffffffff021916908373ffffffffffffffffffffffffffffffffffffffff16021790555033600860006101000a81548173ffffffffffffffffffffffffffffffffffffffff021916908373ffffffffffffffffffffffffffffffffffffffff1602179055506129d1806100c26000396000f30060606040526004361061018b576000357c0100000000000000000000000000000000000000000000000000000000900463ffffffff16806305e455461461019057806306fdde03146101b9578063095ea7b3146102475780630a0f8168146102895780630b7e9c44146102de5780631051db341461031757806318160ddd1461034457806323b872dd1461036d57806327d7874c146103ce5780632ba73c15146104075780633dea6b9a146104405780634c320d3a1461051d5780634cd4f6a9146105c75780636352211e1461064857806370a08231146106ab5780638462151c146106f857806395d89b41146107865780639a7119c2146108145780639e5adf8e14610895578063a3f4df7e1461091a578063a7071d01146109a8578063a9059cbb14610a0b578063aeb8184114610a4d578063b047fb5014610afc578063b2e6ceeb14610b51578063b67efa5b14610b74578063b9186d7d14610bd1578063deffbb2014610c08578063efef39a114610c6b578063f76f8d7814610c83578063fc30dbba14610d11575b600080fd5b341561019b57600080fd5b6101a3610dc0565b6040518082815260200191505060405180910390f35b34156101c457600080fd5b6101cc610dc6565b6040518080602001828103825283818151815260200191508051906020019080838360005b8381101561020c5780820151818401526020810190506101f1565b50505050905090810190601f1680156102395780820380516001836020036101000a031916815260200191505b509250505060405180910390f35b341561025257600080fd5b610287600480803573ffffffffffffffffffffffffffffffffffffffff16906020019091908035906020019091905050610e09565b005b341561029457600080fd5b61029c610ed9565b604051808273ffffffffffffffffffffffffffffffffffffffff1673ffffffffffffffffffffffffffffffffffffffff16815260200191505060405180910390f35b34156102e957600080fd5b610315600480803573ffffffffffffffffffffffffffffffffffffffff16906020019091905050610eff565b005b341561032257600080fd5b61032a610fbf565b604051808215151515815260200191505060405180910390f35b341561034f57600080fd5b610357610fc8565b6040518082815260200191505060405180910390f35b341561037857600080fd5b6103cc600480803573ffffffffffffffffffffffffffffffffffffffff1690602001909190803573ffffffffffffffffffffffffffffffffffffffff16906020019091908035906020019091905050610fd5565b005b34156103d957600080fd5b610405600480803573ffffffffffffffffffffffffffffffffffffffff16906020019091905050611023565b005b341561041257600080fd5b61043e600480803573ffffffffffffffffffffffffffffffffffffffff169060200190919050506110ff565b005b341561044b57600080fd5b61046160048080359060200190919050506111db565b60405180858152602001806020018481526020018373ffffffffffffffffffffffffffffffffffffffff1673ffffffffffffffffffffffffffffffffffffffff168152602001828103825285818151815260200191508051906020019080838360005b838110156104df5780820151818401526020810190506104c4565b50505050905090810190601f16801561050c5780820380516001836020036101000a031916815260200191505b509550505050505060405180910390f35b341561052857600080fd5b6105756004808035906020019082018035906020019080806020026020016040519081016040528093929190818152602001838360200280828437820191505050505050919050506112fc565b60405180806020018281038252838181518152602001915080516000925b818410156105b65782849060200190602002015181526020019260010192610593565b925050509250505060405180910390f35b34156105d257600080fd5b6105f16004808035906020019091908035906020019091905050611562565b6040518080602001828103825283818151815260200191508051906020019060200280838360005b83811015610634578082015181840152602081019050610619565b505050509050019250505060405180910390f35b341561065357600080fd5b61066960048080359060200190919050506115e4565b604051808273ffffffffffffffffffffffffffffffffffffffff1673ffffffffffffffffffffffffffffffffffffffff16815260200191505060405180910390f35b34156106b657600080fd5b6106e2600480803573ffffffffffffffffffffffffffffffffffffffff1690602001909190505061165d565b6040518082815260200191505060405180910390f35b341561070357600080fd5b61072f600480803573ffffffffffffffffffffffffffffffffffffffff169060200190919050506116a6565b6040518080602001828103825283818151815260200191508051906020019060200280838360005b83811015610772578082015181840152602081019050610757565b505050509050019250505060405180910390f35b341561079157600080fd5b6107996117dd565b6040518080602001828103825283818151815260200191508051906020019080838360005b838110156107d95780820151818401526020810190506107be565b50505050905090810190601f1680156108065780820380516001836020036101000a031916815260200191505b509250505060405180910390f35b341561081f57600080fd5b61083e6004808035906020019091908035906020019091905050611820565b6040518080602001828103825283818151815260200191508051906020019060200280838360005b83811015610881578082015181840152602081019050610866565b505050509050019250505060405180910390f35b34156108a057600080fd5b610918600480803573ffffffffffffffffffffffffffffffffffffffff1690602001909190803590602001908201803590602001908080601f016020809104026020016040519081016040528093929190818152602001838380828437820191505050505050919080359060200190919050506118f0565b005b341561092557600080fd5b61092d6119f1565b6040518080602001828103825283818151815260200191508051906020019080838360005b8381101561096d578082015181840152602081019050610952565b50505050905090810190601f16801561099a5780820380516001836020036101000a031916815260200191505b509250505060405180910390f35b34156109b357600080fd5b6109c96004808035906020019091905050611a2a565b604051808273ffffffffffffffffffffffffffffffffffffffff1673ffffffffffffffffffffffffffffffffffffffff16815260200191505060405180910390f35b3415610a1657600080fd5b610a4b600480803573ffffffffffffffffffffffffffffffffffffffff16906020019091908035906020019091905050611a5d565b005b3415610a5857600080fd5b610aa5600480803590602001908201803590602001908080602002602001604051908101604052809392919081815260200183836020028082843782019150505050505091905050611a95565b6040518080602001828103825283818151815260200191508051906020019060200280838360005b83811015610ae8578082015181840152602081019050610acd565b505050509050019250505060405180910390f35b3415610b0757600080fd5b610b0f611b29565b604051808273ffffffffffffffffffffffffffffffffffffffff1673ffffffffffffffffffffffffffffffffffffffff16815260200191505060405180910390f35b3415610b5c57600080fd5b610b726004808035906020019091905050611b4f565b005b3415610b7f57600080fd5b610bcf600480803590602001908201803590602001908080601f01602080910402602001604051908101604052809392919081815260200183838082843782019150505050505091905050611bc4565b005b3415610bdc57600080fd5b610bf26004808035906020019091905050611c30565b6040518082815260200191505060405180910390f35b3415610c1357600080fd5b610c296004808035906020019091905050611c4d565b604051808273ffffffffffffffffffffffffffffffffffffffff1673ffffffffffffffffffffffffffffffffffffffff16815260200191505060405180910390f35b610c816004808035906020019091905050611c80565b005b3415610c8e57600080fd5b610c9661202c565b6040518080602001828103825283818151815260200191508051906020019080838360005b83811015610cd6578082015181840152602081019050610cbb565b50505050905090810190601f168015610d035780820380516001836020036101000a031916815260200191505b509250505060405180910390f35b3415610d1c57600080fd5b610d69600480803590602001908201803590602001908080602002602001604051908101604052809392919081815260200183836020028082843782019150505050505091905050612065565b6040518080602001828103825283818151815260200191508051906020019060200280838360005b83811015610dac578082015181840152602081019050610d91565b505050509050019250505060405180910390f35b60095481565b610dce612755565b6040805190810160405280600b81526020017f43727970746f4d656d6573000000000000000000000000000000000000000000815250905090565b610e133382612147565b1515610e1e57600080fd5b816005600083815260200190815260200160002060006101000a81548173ffffffffffffffffffffffffffffffffffffffff021916908373ffffffffffffffffffffffffffffffffffffffff1602179055508173ffffffffffffffffffffffffffffffffffffffff163373ffffffffffffffffffffffffffffffffffffffff167f8c5be1e5ebec7d5bd14f71427d1e84f3dd0314c0f7b2291e5b200ac8c7c3b925836040518082815260200191505060405180910390a35050565b600760009054906101000a900473ffffffffffffffffffffffffffffffffffffffff1681565b600760009054906101000a900473ffffffffffffffffffffffffffffffffffffffff1673ffffffffffffffffffffffffffffffffffffffff163373ffffffffffffffffffffffffffffffffffffffff161480610fa85750600860009054906101000a900473ffffffffffffffffffffffffffffffffffffffff1673ffffffffffffffffffffffffffffffffffffffff163373ffffffffffffffffffffffffffffffffffffffff16145b1515610fb357600080fd5b610fbc816121b3565b50565b60006001905090565b6000600a80549050905090565b610fdf8382612147565b1515610fea57600080fd5b610ff482826122c1565b1515610fff57600080fd5b6110088261232d565b151561101357600080fd5b61101e838383612366565b505050565b600760009054906101000a900473ffffffffffffffffffffffffffffffffffffffff1673ffffffffffffffffffffffffffffffffffffffff163373ffffffffffffffffffffffffffffffffffffffff1614151561107f57600080fd5b600073ffffffffffffffffffffffffffffffffffffffff168173ffffffffffffffffffffffffffffffffffffffff16141515156110bb57600080fd5b80600760006101000a81548173ffffffffffffffffffffffffffffffffffffffff021916908373ffffffffffffffffffffffffffffffffffffffff16021790555050565b600760009054906101000a900473ffffffffffffffffffffffffffffffffffffffff1673ffffffffffffffffffffffffffffffffffffffff163373ffffffffffffffffffffffffffffffffffffffff1614151561115b57600080fd5b600073ffffffffffffffffffffffffffffffffffffffff168173ffffffffffffffffffffffffffffffffffffffff161415151561119757600080fd5b80600860006101000a81548173ffffffffffffffffffffffffffffffffffffffff021916908373ffffffffffffffffffffffffffffffffffffffff16021790555050565b60006111e5612755565b6000806000600a868154811015156111f957fe5b90600052602060002090019050859450806000018054600181600116156101000203166002900480601f0160208091040260200160405190810160405280929190818152602001828054600181600116156101000203166002900480156112a15780601f10611276576101008083540402835291602001916112a1565b820191906000526020600020905b81548152906001019060200180831161128457829003601f168201915b50505050509350600660008781526020019081526020016000205492506003600087815260200190815260200160002060009054906101000a900473ffffffffffffffffffffffffffffffffffffffff169150509193509193565b611304612769565b600061130e61277d565b611316612797565b84516040518059106113255750595b90808252806020026020018201604052801561135b57816020015b6113486127dc565b8152602001906001900390816113405790505b509350600092505b845183101561155a57600a858481518110151561137c57fe5b9060200190602002015181548110151561139257fe5b906000526020600020900160206040519081016040529081600082018054600181600116156101000203166002900480601f0160208091040260200160405190810160405280929190818152602001828054600181600116156101000203166002900480156114425780601f1061141757610100808354040283529160200191611442565b820191906000526020600020905b81548152906001019060200180831161142557829003601f168201915b5050505050815250509150848381518110151561145b57fe5b906020019060200201518160000181815250508160000151816020018190525060066000868581518110151561148d57fe5b906020019060200201518152602001908152602001600020548160400181815250506003600086858151811015156114c157fe5b90602001906020020151815260200190815260200160002060009054906101000a900473ffffffffffffffffffffffffffffffffffffffff16816060019073ffffffffffffffffffffffffffffffffffffffff16908173ffffffffffffffffffffffffffffffffffffffff168152505080848481518110151561154057fe5b906020019060200201819052508280600101935050611363565b505050919050565b61156a612821565b600083830360405180591061157c5750595b90808252806020026020018201604052509150600090505b8383038110156115dd576006600085830181526020019081526020016000205482828151811015156115c257fe5b90602001906020020181815250508080600101915050611594565b5092915050565b60006003600083815260200190815260200160002060009054906101000a900473ffffffffffffffffffffffffffffffffffffffff169050600073ffffffffffffffffffffffffffffffffffffffff168173ffffffffffffffffffffffffffffffffffffffff161415151561165857600080fd5b919050565b6000600460008373ffffffffffffffffffffffffffffffffffffffff1673ffffffffffffffffffffffffffffffffffffffff168152602001908152602001600020549050919050565b6116ae612821565b60006116b8612821565b60008060006116c68761165d565b945060008514156116f85760006040518059106116e05750595b908082528060200260200182016040525095506117d3565b846040518059106117065750595b90808252806020026020018201604052509350611721610fc8565b925060009150600090505b82811115156117cf578673ffffffffffffffffffffffffffffffffffffffff166003600083815260200190815260200160002060009054906101000a900473ffffffffffffffffffffffffffffffffffffffff1673ffffffffffffffffffffffffffffffffffffffff1614156117c2578084838151811015156117ab57fe5b906020019060200201818152505081806001019250505b808060010191505061172c565b8395505b5050505050919050565b6117e5612755565b6040805190810160405280600981526020017f4d656d65546f6b656e0000000000000000000000000000000000000000000000815250905090565b611828612835565b600083830360405180591061183a5750595b90808252806020026020018201604052509150600090505b8383038110156118e95760036000858301815260200190815260200160002060009054906101000a900473ffffffffffffffffffffffffffffffffffffffff1682828151811015156118a057fe5b9060200190602002019073ffffffffffffffffffffffffffffffffffffffff16908173ffffffffffffffffffffffffffffffffffffffff16815250508080600101915050611852565b5092915050565b6000600860009054906101000a900473ffffffffffffffffffffffffffffffffffffffff1673ffffffffffffffffffffffffffffffffffffffff163373ffffffffffffffffffffffffffffffffffffffff1614151561194e57600080fd5b61138860095410151561196057600080fd5b839050600073ffffffffffffffffffffffffffffffffffffffff168173ffffffffffffffffffffffffffffffffffffffff1614156119be57600860009054906101000a900473ffffffffffffffffffffffffffffffffffffffff1690505b6000821115156119ce5760005491505b6009600081548092919060010191905055506119eb838284612568565b50505050565b6040805190810160405280600b81526020017f43727970746f4d656d657300000000000000000000000000000000000000000081525081565b60056020528060005260406000206000915054906101000a900473ffffffffffffffffffffffffffffffffffffffff1681565b611a673382612147565b1515611a7257600080fd5b611a7b8261232d565b1515611a8657600080fd5b611a91338383612366565b5050565b611a9d612821565b60008251604051805910611aae5750595b90808252806020026020018201604052509150600090505b8251811015611b2357600660008483815181101515611ae157fe5b906020019060200201518152602001908152602001600020548282815181101515611b0857fe5b90602001906020020181815250508080600101915050611ac6565b50919050565b600860009054906101000a900473ffffffffffffffffffffffffffffffffffffffff1681565b6000803391506003600084815260200190815260200160002060009054906101000a900473ffffffffffffffffffffffffffffffffffffffff169050611b948261232d565b1515611b9f57600080fd5b611ba982846122c1565b1515611bb457600080fd5b611bbf818385612366565b505050565b600860009054906101000a900473ffffffffffffffffffffffffffffffffffffffff1673ffffffffffffffffffffffffffffffffffffffff163373ffffffffffffffffffffffffffffffffffffffff16141515611c2057600080fd5b611c2d8130600054612568565b50565b600060066000838152602001908152602001600020549050919050565b60036020528060005260406000206000915054906101000a900473ffffffffffffffffffffffffffffffffffffffff1681565b60008060008060006003600087815260200190815260200160002060009054906101000a900473ffffffffffffffffffffffffffffffffffffffff169450339350600660008781526020019081526020016000205492508373ffffffffffffffffffffffffffffffffffffffff168573ffffffffffffffffffffffffffffffffffffffff1614151515611d1257600080fd5b611d1b8461232d565b1515611d2657600080fd5b823410151515611d3557600080fd5b611d4a611d4384605e6126e6565b6064612721565b9150611d56348461273c565b9050600154831015611d9357611d77611d708460c86126e6565b605e612721565b6006600088815260200190815260200160002081905550611dfc565b600254831015611dce57611db2611dab8460786126e6565b605e612721565b6006600088815260200190815260200160002081905550611dfb565b611de3611ddc8460736126e6565b605e612721565b60066000888152602001908152602001600020819055505b5b611e07858588612366565b3073ffffffffffffffffffffffffffffffffffffffff168573ffffffffffffffffffffffffffffffffffffffff16141515611e7d578473ffffffffffffffffffffffffffffffffffffffff166108fc839081150290604051600060405180830381858888f193505050501515611e7c57600080fd5b5b7e8201e7bcbf010c2c07de59d6e97cb7e3cf67a46125c49cbc89b9d2cde1f48f8684600660008a8152602001908152602001600020548888600a8c815481101515611ec457fe5b9060005260206000209001600001604051808781526020018681526020018581526020018473ffffffffffffffffffffffffffffffffffffffff1673ffffffffffffffffffffffffffffffffffffffff1681526020018373ffffffffffffffffffffffffffffffffffffffff1673ffffffffffffffffffffffffffffffffffffffff16815260200180602001828103825283818154600181600116156101000203166002900481526020019150805460018160011615610100020316600290048015611fd15780601f10611fa657610100808354040283529160200191611fd1565b820191906000526020600020905b815481529060010190602001808311611fb457829003601f168201915b505097505050505050505060405180910390a13373ffffffffffffffffffffffffffffffffffffffff166108fc829081150290604051600060405180830381858888f19350505050151561202457600080fd5b505050505050565b6040805190810160405280600981526020017f4d656d65546f6b656e000000000000000000000000000000000000000000000081525081565b61206d612835565b6000825160405180591061207e5750595b90808252806020026020018201604052509150600090505b8251811015612141576003600084838151811015156120b157fe5b90602001906020020151815260200190815260200160002060009054906101000a900473ffffffffffffffffffffffffffffffffffffffff1682828151811015156120f857fe5b9060200190602002019073ffffffffffffffffffffffffffffffffffffffff16908173ffffffffffffffffffffffffffffffffffffffff16815250508080600101915050612096565b50919050565b60006003600083815260200190815260200160002060009054906101000a900473ffffffffffffffffffffffffffffffffffffffff1673ffffffffffffffffffffffffffffffffffffffff168373ffffffffffffffffffffffffffffffffffffffff1614905092915050565b600073ffffffffffffffffffffffffffffffffffffffff168173ffffffffffffffffffffffffffffffffffffffff16141561226657600760009054906101000a900473ffffffffffffffffffffffffffffffffffffffff1673ffffffffffffffffffffffffffffffffffffffff166108fc3073ffffffffffffffffffffffffffffffffffffffff16319081150290604051600060405180830381858888f19350505050151561226157600080fd5b6122be565b8073ffffffffffffffffffffffffffffffffffffffff166108fc3073ffffffffffffffffffffffffffffffffffffffff16319081150290604051600060405180830381858888f1935050505015156122bd57600080fd5b5b50565b60008273ffffffffffffffffffffffffffffffffffffffff166005600084815260200190815260200160002060009054906101000a900473ffffffffffffffffffffffffffffffffffffffff1673ffffffffffffffffffffffffffffffffffffffff1614905092915050565b60008073ffffffffffffffffffffffffffffffffffffffff168273ffffffffffffffffffffffffffffffffffffffff1614159050919050565b600460008373ffffffffffffffffffffffffffffffffffffffff1673ffffffffffffffffffffffffffffffffffffffff16815260200190815260200160002060008154809291906001019190505550816003600083815260200190815260200160002060006101000a81548173ffffffffffffffffffffffffffffffffffffffff021916908373ffffffffffffffffffffffffffffffffffffffff160217905550600073ffffffffffffffffffffffffffffffffffffffff168373ffffffffffffffffffffffffffffffffffffffff161415156124c457600460008473ffffffffffffffffffffffffffffffffffffffff1673ffffffffffffffffffffffffffffffffffffffff16815260200190815260200160002060008154809291906001900391905055506005600082815260200190815260200160002060006101000a81549073ffffffffffffffffffffffffffffffffffffffff02191690555b7fddf252ad1be2c89b69c2b068fc378daa952ba7f163c4a11628f55a4df523b3ef838383604051808473ffffffffffffffffffffffffffffffffffffffff1673ffffffffffffffffffffffffffffffffffffffff1681526020018373ffffffffffffffffffffffffffffffffffffffff1673ffffffffffffffffffffffffffffffffffffffff168152602001828152602001935050505060405180910390a1505050565b61257061277d565b60006020604051908101604052808681525091506001600a805480600101828161259a9190612849565b9160005260206000209001600085909190915060008201518160000190805190602001906125c9929190612875565b5050500390508063ffffffff16811415156125e357600080fd5b7fb3b0cf861f168bcdb275c69da97b2543631552ba562628aa3c7317d4a6089ef281868660405180848152602001806020018373ffffffffffffffffffffffffffffffffffffffff1673ffffffffffffffffffffffffffffffffffffffff168152602001828103825284818151815260200191508051906020019080838360005b8381101561267f578082015181840152602081019050612664565b50505050905090810190601f1680156126ac5780820380516001836020036101000a031916815260200191505b5094505050505060405180910390a18260066000838152602001908152602001600020819055506126df60008583612366565b5050505050565b60008060008414156126fb576000915061271a565b828402905082848281151561270c57fe5b0414151561271657fe5b8091505b5092915050565b600080828481151561272f57fe5b0490508091505092915050565b600082821115151561274a57fe5b818303905092915050565b602060405190810160405280600081525090565b602060405190810160405280600081525090565b6020604051908101604052806127916128f5565b81525090565b608060405190810160405280600081526020016127b26128f5565b815260200160008152602001600073ffffffffffffffffffffffffffffffffffffffff1681525090565b608060405190810160405280600081526020016127f76128f5565b815260200160008152602001600073ffffffffffffffffffffffffffffffffffffffff1681525090565b602060405190810160405280600081525090565b602060405190810160405280600081525090565b8154818355818115116128705781836000526020600020918201910161286f9190612909565b5b505050565b828054600181600116156101000203166002900490600052602060002090601f016020900481019282601f106128b657805160ff19168380011785556128e4565b828001600101855582156128e4579182015b828111156128e35782518255916020019190600101906128c8565b5b5090506128f19190612938565b5090565b602060405190810160405280600081525090565b61293591905b808211156129315760008082016000612928919061295d565b5060010161290f565b5090565b90565b61295a91905b8082111561295657600081600090555060010161293e565b5090565b90565b50805460018160011615610100020316600290046000825580601f1061298357506129a2565b601f0160209004906000526020600020908101906129a19190612938565b5b505600a165627a7a72305820b7af2f41126584e1fe2058a9f6cb783da77f9e476ae9a0f1719bcb35f162848d0029",
  "source": "pragma solidity ^0.4.18; // solhint-disable-line\n\n\n\n/// @title Interface for contracts conforming to ERC-721: Non-Fungible Tokens\n/// @author Dieter Shirley <dete@axiomzen.co> (https://github.com/dete)\ncontract ERC721 {\n  // Required methods\n  function approve(address _to, uint256 _tokenId) public;\n  function balanceOf(address _owner) public view returns (uint256 balance);\n  function implementsERC721() public pure returns (bool);\n  function ownerOf(uint256 _tokenId) public view returns (address addr);\n  function takeOwnership(uint256 _tokenId) public;\n  function totalSupply() public view returns (uint256 total);\n  function transferFrom(address _from, address _to, uint256 _tokenId) public;\n  function transfer(address _to, uint256 _tokenId) public;\n\n  event Transfer(address indexed from, address indexed to, uint256 tokenId);\n  event Approval(address indexed owner, address indexed approved, uint256 tokenId);\n\n  // Optional\n  // function name() public view returns (string name);\n  // function symbol() public view returns (string symbol);\n  // function tokenOfOwnerByIndex(address _owner, uint256 _index) external view returns (uint256 tokenId);\n  // function tokenMetadata(uint256 _tokenId) public view returns (string infoUrl);\n}\n\n\ncontract MemeToken is ERC721 {\n\n  /*** EVENTS ***/\n\n  /// @dev The Birth event is fired whenever a new meme comes into existence.\n  event Birth(uint256 tokenId, string name, address owner);\n\n  /// @dev The TokenSold event is fired whenever a token is sold.\n  event TokenSold(uint256 tokenId, uint256 oldPrice, uint256 newPrice, address prevOwner, address winner, string name);\n\n  /// @dev Transfer event as defined in current draft of ERC721. \n  ///  ownership is assigned, including births.\n  event Transfer(address from, address to, uint256 tokenId);\n\n  /*** CONSTANTS ***/\n\n  /// @notice Name and symbol of the non fungible token, as defined in ERC721.\n  string public constant NAME = \"CryptoMemes\"; // solhint-disable-line\n  string public constant SYMBOL = \"MemeToken\"; // solhint-disable-line\n\n  uint256 private startingPrice = 0.001 ether;\n  uint256 private constant PROMO_CREATION_LIMIT = 5000;\n  uint256 private firstStepLimit =  0.053613 ether;\n  uint256 private secondStepLimit = 0.564957 ether;\n\n  /*** STORAGE ***/\n\n  /// @dev A mapping from meme IDs to the address that owns them. All memes have\n  ///  some valid owner address.\n  mapping (uint256 => address) public memeIndexToOwner;\n\n  // @dev A mapping from owner address to count of tokens that address owns.\n  //  Used internally inside balanceOf() to resolve ownership count.\n  mapping (address => uint256) private ownershipTokenCount;\n\n  /// @dev A mapping from MemeIDs to an address that has been approved to call\n  ///  transferFrom(). Each Meme can only have one approved address for transfer\n  ///  at any time. A zero value means no approval is outstanding.\n  mapping (uint256 => address) public memeIndexToApproved;\n\n  // @dev A mapping from MemeIDs to the price of the token.\n  mapping (uint256 => uint256) private memeIndexToPrice;\n\n  // The addresses of the accounts (or contracts) that can execute actions within each roles.\n  address public ceoAddress;\n  address public cooAddress;\n\n  uint256 public promoCreatedCount;\n\n  /*** DATATYPES ***/\n  struct Meme {\n    string name;\n  }\n\n  struct Memes {\n    uint256 Id;\n    string memeName;\n    uint256 sellingPrice;\n    address owner;\n  }\n\n  Meme[] private memes;\n\n  /*** ACCESS MODIFIERS ***/\n  /// @dev Access modifier for CEO-only functionality\n  modifier onlyCEO() {\n    require(msg.sender == ceoAddress);\n    _;\n  }\n\n  /// @dev Access modifier for COO-only functionality\n  modifier onlyCOO() {\n    require(msg.sender == cooAddress);\n    _;\n  }\n\n  /// Access modifier for contract owner only functionality\n  modifier onlyCLevel() {\n    require(\n      msg.sender == ceoAddress ||\n      msg.sender == cooAddress\n    );\n    _;\n  }\n\n  /*** CONSTRUCTOR ***/\n  function MemeToken() public {\n    ceoAddress = msg.sender;\n    cooAddress = msg.sender;\n  }\n\n  /*** PUBLIC FUNCTIONS ***/\n  /// @notice Grant another address the right to transfer token via takeOwnership() and transferFrom().\n  /// @param _to The address to be granted transfer approval. Pass address(0) to\n  ///  clear all approvals.\n  /// @param _tokenId The ID of the Token that can be transferred if this call succeeds.\n  /// @dev Required for ERC-721 compliance.\n  function approve(\n    address _to,\n    uint256 _tokenId\n  ) public {\n    // Caller must own token.\n    require(_owns(msg.sender, _tokenId));\n\n    memeIndexToApproved[_tokenId] = _to;\n\n    Approval(msg.sender, _to, _tokenId);\n  }\n\n  /// For querying balance of a particular account\n  /// @param _owner The address for balance query\n  /// @dev Required for ERC-721 compliance.\n  function balanceOf(address _owner) public view returns (uint256 balance) {\n    return ownershipTokenCount[_owner];\n  }\n\n  /// @dev Creates a new promo Meme with the given name, with given _price and assignes it to an address.\n  function createPromoMeme(address _owner, string _name, uint256 _price) public onlyCOO {\n    require(promoCreatedCount < PROMO_CREATION_LIMIT);\n\n    address memeOwner = _owner;\n    if (memeOwner == address(0)) {\n      memeOwner = cooAddress;\n    }\n\n    if (_price <= 0) {\n      _price = startingPrice;\n    }\n\n    promoCreatedCount++;\n    _createMeme(_name, memeOwner, _price);\n  }\n\n  /// @dev Creates a new Meme with the given name.\n  function createContractMeme(string _name) public onlyCOO {\n    _createMeme(_name, address(this), startingPrice);\n  }\n\n  /// @notice Returns all the relevant information about a specific meme.\n  /// @param _tokenId The tokenId of the meme of interest.\n  function getMeme(uint256 _tokenId) public view returns (\n    uint256 Id,\n    string memeName,\n    uint256 sellingPrice,\n    address owner\n  ) {\n    Meme storage meme = memes[_tokenId];\n    Id = _tokenId;\n    memeName = meme.name;\n    sellingPrice = memeIndexToPrice[_tokenId];\n    owner = memeIndexToOwner[_tokenId];\n  }\n\n  /// @notice Returns all the relevant information about a specific meme.\n  /// @param _tokenIds The tokenId of the meme of interest.\n  function getMemes(uint256[] _tokenIds) public view returns (\n    Memes[] resultMemes\n  ) {\n    resultMemes = new Memes[](_tokenIds.length);\n    for(uint i=0;i<_tokenIds.length;i++){\n      Meme memory meme = memes[_tokenIds[i]];\n      Memes memory resultMeme;\n      resultMeme.Id = _tokenIds[i];\n      resultMeme.memeName = meme.name;\n      resultMeme.sellingPrice = memeIndexToPrice[_tokenIds[i]];\n      resultMeme.owner = memeIndexToOwner[_tokenIds[i]];\n      resultMemes[i]=resultMeme;\n    }\n    \n  }\n\n  /// @notice Returns all the relevant information about a specific meme.\n  /// @param _tokenIds The tokenId of the meme of interest.\n  function getMemeSellingPrices(uint256[] _tokenIds) public view returns (\n    uint256[] sellingPrices\n  ) {\n    sellingPrices = new uint256[](_tokenIds.length);\n    for(uint i=0;i<_tokenIds.length;i++){\n      sellingPrices[i]=memeIndexToPrice[_tokenIds[i]];\n    }\n\n  }\n\n  /// @notice Returns all the relevant information about a specific meme.\n  /// @param _tokenIdStart The start tokenId of the range of meme.\n  /// @param _tokenIdEnd The end tokenId of the range of meme.\n  function getMemeSellingPricesByRange(uint256 _tokenIdStart, uint256 _tokenIdEnd) public view returns (\n    uint256[] sellingPrices\n  ) {\n    sellingPrices = new uint256[](_tokenIdEnd-_tokenIdStart);\n    for(uint i=0;i<(_tokenIdEnd-_tokenIdStart);i++){\n      sellingPrices[i]=memeIndexToPrice[i+_tokenIdStart];\n    }\n  }\n\n  /// @notice Returns all the relevant information about a specific meme.\n  /// @param _tokenIdStart The start tokenId of the range of meme.\n  /// @param _tokenIdEnd The end tokenId of the range of meme.\n  function getMemeOwnersByRange(uint256 _tokenIdStart, uint256 _tokenIdEnd) public view returns (\n    address[] owners\n  ) {\n    owners = new address[](_tokenIdEnd-_tokenIdStart);\n    for(uint i=0;i<(_tokenIdEnd-_tokenIdStart);i++){\n      owners[i]=memeIndexToOwner[i+_tokenIdStart];\n    }\n  }\n\n  /// @notice Returns all the relevant information about a specific meme.\n  /// @param _tokenIds The tokenId of the meme of interest.\n  function getMemeOwners(uint256[] _tokenIds) public view returns (\n    address[] owners\n  ) {\n    owners = new address[](_tokenIds.length);\n    for(uint i=0;i<_tokenIds.length;i++){\n      owners[i]=memeIndexToOwner[_tokenIds[i]];\n    }\n  }\n\n  function implementsERC721() public pure returns (bool) {\n    return true;\n  }\n\n  /// @dev Required for ERC-721 compliance.\n  function name() public pure returns (string) {\n    return NAME;\n  }\n\n  /// For querying owner of token\n  /// @param _tokenId The tokenID for owner inquiry\n  /// @dev Required for ERC-721 compliance.\n  function ownerOf(uint256 _tokenId)\n    public\n    view\n    returns (address owner)\n  {\n    owner = memeIndexToOwner[_tokenId];\n    require(owner != address(0));\n  }\n\n  function payout(address _to) public onlyCLevel {\n    _payout(_to);\n  }\n\n  // Allows someone to send ether and obtain the token\n  function purchase(uint256 _tokenId) public payable {\n    address oldOwner = memeIndexToOwner[_tokenId];\n    address newOwner = msg.sender;\n\n    uint256 sellingPrice = memeIndexToPrice[_tokenId];\n\n    // Making sure token owner is not sending to self\n    require(oldOwner != newOwner);\n\n    // Safety check to prevent against an unexpected 0x0 default.\n    require(_addressNotNull(newOwner));\n\n    // Making sure sent amount is greater than or equal to the sellingPrice\n    require(msg.value >= sellingPrice);\n\n    uint256 payment = uint256(SafeMath.div(SafeMath.mul(sellingPrice, 94), 100));\n    uint256 purchaseExcess = SafeMath.sub(msg.value, sellingPrice);\n\n    // Update prices\n    if (sellingPrice < firstStepLimit) {\n      // first stage\n      memeIndexToPrice[_tokenId] = SafeMath.div(SafeMath.mul(sellingPrice, 200), 94);\n    } else if (sellingPrice < secondStepLimit) {\n      // second stage\n      memeIndexToPrice[_tokenId] = SafeMath.div(SafeMath.mul(sellingPrice, 120), 94);\n    } else {\n      // third stage\n      memeIndexToPrice[_tokenId] = SafeMath.div(SafeMath.mul(sellingPrice, 115), 94);\n    }\n\n    _transfer(oldOwner, newOwner, _tokenId);\n\n    // Pay previous tokenOwner if owner is not contract\n    if (oldOwner != address(this)) {\n      oldOwner.transfer(payment); //(1-0.06)\n    }\n\n    TokenSold(_tokenId, sellingPrice, memeIndexToPrice[_tokenId], oldOwner, newOwner, memes[_tokenId].name);\n\n    msg.sender.transfer(purchaseExcess);\n  }\n\n  function priceOf(uint256 _tokenId) public view returns (uint256 price) {\n    return memeIndexToPrice[_tokenId];\n  }\n\n  /// @dev Assigns a new address to act as the CEO. Only available to the current CEO.\n  /// @param _newCEO The address of the new CEO\n  function setCEO(address _newCEO) public onlyCEO {\n    require(_newCEO != address(0));\n\n    ceoAddress = _newCEO;\n  }\n\n  /// @dev Assigns a new address to act as the COO. Only available to the current COO.\n  /// @param _newCOO The address of the new COO\n  function setCOO(address _newCOO) public onlyCEO {\n    require(_newCOO != address(0));\n\n    cooAddress = _newCOO;\n  }\n\n  /// @dev Required for ERC-721 compliance.\n  function symbol() public pure returns (string) {\n    return SYMBOL;\n  }\n\n  /// @notice Allow pre-approved user to take ownership of a token\n  /// @param _tokenId The ID of the Token that can be transferred if this call succeeds.\n  /// @dev Required for ERC-721 compliance.\n  function takeOwnership(uint256 _tokenId) public {\n    address newOwner = msg.sender;\n    address oldOwner = memeIndexToOwner[_tokenId];\n\n    // Safety check to prevent against an unexpected 0x0 default.\n    require(_addressNotNull(newOwner));\n\n    // Making sure transfer is approved\n    require(_approved(newOwner, _tokenId));\n\n    _transfer(oldOwner, newOwner, _tokenId);\n  }\n\n  /// @param _owner The owner whose celebrity tokens we are interested in.\n  /// @dev This method MUST NEVER be called by smart contract code. First, it's fairly\n  ///  expensive (it walks the entire Memes array looking for memes belonging to owner),\n  ///  but it also returns a dynamic array, which is only supported for web3 calls, and\n  ///  not contract-to-contract calls.\n  function tokensOfOwner(address _owner) public view returns(uint256[] ownerTokens) {\n    uint256 tokenCount = balanceOf(_owner);\n    if (tokenCount == 0) {\n        // Return an empty array\n      return new uint256[](0);\n    } else {\n      uint256[] memory result = new uint256[](tokenCount);\n      uint256 totalMemes = totalSupply();\n      uint256 resultIndex = 0;\n\n      uint256 memeId;\n      for (memeId = 0; memeId <= totalMemes; memeId++) {\n        if (memeIndexToOwner[memeId] == _owner) {\n          result[resultIndex] = memeId;\n          resultIndex++;\n        }\n      }\n      return result;\n    }\n  }\n\n  /// For querying totalSupply of token\n  /// @dev Required for ERC-721 compliance.\n  function totalSupply() public view returns (uint256 total) {\n    return memes.length;\n  }\n\n  /// Owner initates the transfer of the token to another account\n  /// @param _to The address for the token to be transferred to.\n  /// @param _tokenId The ID of the Token that can be transferred if this call succeeds.\n  /// @dev Required for ERC-721 compliance.\n  function transfer(\n    address _to,\n    uint256 _tokenId\n  ) public {\n    require(_owns(msg.sender, _tokenId));\n    require(_addressNotNull(_to));\n\n    _transfer(msg.sender, _to, _tokenId);\n  }\n\n  /// Third-party initiates transfer of token from address _from to address _to\n  /// @param _from The address for the token to be transferred from.\n  /// @param _to The address for the token to be transferred to.\n  /// @param _tokenId The ID of the Token that can be transferred if this call succeeds.\n  /// @dev Required for ERC-721 compliance.\n  function transferFrom(\n    address _from,\n    address _to,\n    uint256 _tokenId\n  ) public {\n    require(_owns(_from, _tokenId));\n    require(_approved(_to, _tokenId));\n    require(_addressNotNull(_to));\n\n    _transfer(_from, _to, _tokenId);\n  }\n\n  /*** PRIVATE FUNCTIONS ***/\n  /// Safety check on _to address to prevent against an unexpected 0x0 default.\n  function _addressNotNull(address _to) private pure returns (bool) {\n    return _to != address(0);\n  }\n\n  /// For checking approval of transfer for address _to\n  function _approved(address _to, uint256 _tokenId) private view returns (bool) {\n    return memeIndexToApproved[_tokenId] == _to;\n  }\n\n  /// For creating Meme\n  function _createMeme(string _name, address _owner, uint256 _price) private {\n    Meme memory _meme = Meme({\n      name: _name\n    });\n    uint256 newMemeId = memes.push(_meme) - 1;\n\n    // It's probably never going to happen, 4 billion tokens are A LOT, but\n    // let's just be 100% sure we never let this happen.\n    require(newMemeId == uint256(uint32(newMemeId)));\n\n    Birth(newMemeId, _name, _owner);\n\n    memeIndexToPrice[newMemeId] = _price;\n\n    // This will assign ownership, and also emit the Transfer event as\n    // per ERC721 draft\n    _transfer(address(0), _owner, newMemeId);\n  }\n\n  /// Check for token ownership\n  function _owns(address claimant, uint256 _tokenId) private view returns (bool) {\n    return claimant == memeIndexToOwner[_tokenId];\n  }\n\n  /// For paying out balance on contract\n  function _payout(address _to) private {\n    if (_to == address(0)) {\n      ceoAddress.transfer(this.balance);\n    } else {\n      _to.transfer(this.balance);\n    }\n  }\n\n  /// @dev Assigns ownership of a specific Meme to an address.\n  function _transfer(address _from, address _to, uint256 _tokenId) private {\n    // Since the number of memes is capped to 2^32 we can't overflow this\n    ownershipTokenCount[_to]++;\n    //transfer ownership\n    memeIndexToOwner[_tokenId] = _to;\n\n    // When creating new memes _from is 0x0, but we can't account that address.\n    if (_from != address(0)) {\n      ownershipTokenCount[_from]--;\n      // clear any previously approved ownership exchange\n      delete memeIndexToApproved[_tokenId];\n    }\n\n    // Emit the transfer event.\n    Transfer(_from, _to, _tokenId);\n  }\n\n}\nlibrary SafeMath {\n\n  /**\n  * @dev Multiplies two numbers, throws on overflow.\n  */\n  function mul(uint256 a, uint256 b) internal pure returns (uint256) {\n    if (a == 0) {\n      return 0;\n    }\n    uint256 c = a * b;\n    assert(c / a == b);\n    return c;\n  }\n\n  /**\n  * @dev Integer division of two numbers, truncating the quotient.\n  */\n  function div(uint256 a, uint256 b) internal pure returns (uint256) {\n    // assert(b > 0); // Solidity automatically throws when dividing by 0\n    uint256 c = a / b;\n    // assert(a == b * c + a % b); // There is no case in which this doesn't hold\n    return c;\n  }\n\n  /**\n  * @dev Substracts two numbers, throws on overflow (i.e. if subtrahend is greater than minuend).\n  */\n  function sub(uint256 a, uint256 b) internal pure returns (uint256) {\n    assert(b <= a);\n    return a - b;\n  }\n\n  /**\n  * @dev Adds two numbers, throws on overflow.\n  */\n  function add(uint256 a, uint256 b) internal pure returns (uint256) {\n    uint256 c = a + b;\n    assert(c >= a);\n    return c;\n  }\n}",
  "sourcePath": "/Users/slakshman/Google Drive/OneDrive/CRYPTO/cryptomeme/contracts/MemeToken.sol",
  "compiler": {
    "name": "solc",
    "version": "0.4.18+commit.9cf6e910.Emscripten.clang"
  },
  "schemaVersion": "1.0.1",
  "updatedAt": "2018-01-30T17:39:14.640Z"
}